:100000000C947A000C9405030C94F5020C940503EF
:100010000C9405030C9405030C9405030C94110235
:100020000C9405030C9481010C94B1010C94E10132
:100030000C9405030C9405030C9405030C94050320
:100040000C9405030C9405030C9405030C94050310
:100050000C9405030C9405030C9405030C94050300
:100060000C9405030C9405030C9405030C940503F0
:100070000C9405030C9405030C9405030C940503E0
:100080000C9405030C9405030C9405030C940503D0
:100090000C9405030C9405030C9405030C940503C0
:1000A0000C9405030C9405030C9405030C940503B0
:1000B0000C9405030C9405030C9405030C940503A0
:1000C0000C9405030C9405030C9405030C94050390
:1000D0000C9405030C9405030C9405030C94050380
:1000E0000C9405030C9405034000400800062040D2
:1000F00008400A8011241FBECFEFCDBFDFE7DEBF6F
:10010000E8EEF0E040E019C0B791A7913791279150
:10011000079107FD0EC097918791EF01F92FE82F06
:100120000BBF07900D92A217B307D9F7FE011BBEB4
:1001300004C01D92A217B307E1F7E43FF40721F7CB
:0C0140000E94CE020C94DA02F894FFCF6B
:10014C000F931F93CF93DF930E944A0140E054E03A
:10015C0087E0FA01808320E234E0F901108280E428
:10016C0094E060E4FC016083C0E6D4E01882A0E86F
:10017C00B4E01C9200EA14E0F8011082FA01148237
:10018C00F9011482FC0114821C8214961C9214979F
:10019C00F8011482FA01108A118A128A138A148ABD
:1001AC00158A168A178AF901108A118A128A138AFB
:1001BC00148A158A168A178AFC01108A118A128AE7
:1001CC00138A148A158A168A68E0678B188A198A2A
:1001DC001A8A1B8A1C8A1D8A1E8A1F8A50961C9298
:1001EC00509751961C92519752961C925297539637
:1001FC001C92539754961C92549755961C92559753
:10020C0056961C92569757961C925797F801108A3F
:10021C00118A128A138A148A158A168A178AFA0185
:10022C001386168615861486F9011386168615868E
:10023C001486FC0113861686158614861B861E866C
:10024C001D861C861B961C921B971E961C921E9735
:10025C001D961C921D971C961C92F80113861686EF
:10026C0015861486E0EEF5E0118611821082148258
:10027C001682178210861582128213821286DF91E3
:08028C00CF911F910F9108951D
:10029400E0E9F4E0808188608193E83984E0F8073C
:1002A400C9F7E0EBF4E0808188608193E83B84E067
:1002B400F807C9F7E0E1F4E0808188608193E831D0
:1002C40084E0F807C9F7E0E3F4E080818860819373
:1002D400E83384E0F807C9F7E0E5F4E0808188605A
:1002E4008193E83584E0F807C9F7E0E7F4E080811A
:0E02F40088608193E83784E0F807C9F7089521
:100302001F920F920FB60F9211240BB60F922F93DA
:100312003F934F935F936F937F938F939F93AF938B
:10032200BF93EF93FF93E0910640F091074030971F
:1003320009F0099580E180930B0AFF91EF91BF913B
:10034200AF919F918F917F916F915F914F913F916B
:100352002F910F900BBE0F900FBE0F901F9018950C
:100362001F920F920FB60F9211240BB60F922F937A
:100372003F934F935F936F937F938F939F93AF932B
:10038200BF93EF93FF93E0910440F09105403097C3
:1003920009F0099580E280930B0AFF91EF91BF91DA
:1003A200AF919F918F917F916F915F914F913F910B
:1003B2002F910F900BBE0F900FBE0F901F901895AC
:1003C2001F920F920FB60F9211240BB60F922F931A
:1003D2003F934F935F936F937F938F939F93AF93CB
:1003E200BF93EF93FF93E0910240F0910340309767
:1003F20009F0099580E480930B0AFF91EF91BF9178
:10040200AF919F918F917F916F915F914F913F91AA
:100412002F910F900BBE0F900FBE0F901F9018954B
:100422001F920F920FB60F9211240BB60F922F93B9
:100432003F934F935F936F937F938F939F93AF936A
:10044200BF93EF93FF93E0910040F091014030970A
:1004520009F0099581E080930B0AFF91EF91BF911A
:10046200AF919F918F917F916F915F914F913F914A
:100472002F910F900BBE0F900FBE0F901F901895EB
:1004820040E068ED88E790E00E94000340E068EDFC
:100492008CE790E00E94000340E068ED81E690E086
:1004A2000E94000340E068ED80E690E00E940003B5
:1004B20040E068ED83E690E00E9400034CE068EDC6
:1004C20088E690E00E94000340E068ED82E690E05A
:0804D2000E94000380E0089580
:1004DA00E0E0FAE081E090E080A791A782A793A7E5
:1004EA0084A795A710A211A21182128213821482E4
:1004FA00158216821782168611868287138681E4F0
:10050A009FE086A397A317868FE0808380E00895F3
:10051A00579B13C08091084090910940019680939F
:10052A00084090930940059759F480E48093450464
:10053A001092084010920940089580E4809346047E
:02054A00089512
:10054C000E94A6000E94C2020E94ED020E9441027B
:0E055C000E94E5020E946D020E94B502089501
:10056A0040E068ED80E191E00E940003E0E1F1E003
:0A057A0012821382789480E0089545
:1005840040E068ED80E890E00E940003E0E8F0E0DD
:080594001186108680E0089535
:10059C000E94A602E7E5F4E08081886080838DE804
:0805AC0092E00E94FB02FFCF68
:1005B400EC010E940E030E940D03CE010E940F0362
:0605C400CE010E940703B6
:1005CA0040E068ED80E590E00E94000380E0089535
:1005DA0040E068ED80E091E00E94000380E0089529
:0C05EA008F9381E080938A008F91189518
:0A05F60080930040909301400895A7
:0A0600001BBEFC0164BF4083089597
:04060A000C9400004C
:04060E000E94A400A2
:02061200089549
:02061400089547
:02061600089545
:02061800089543
:02061A00089541
:02061C0008953F
:02061E0008953D
:020620000C03C9
:020622000B03C8
:020624000A03C7
:020626000903C6
:02000004008278
:090000000000000000C000000037
:00000001FF
