:100000000C9477000C94F6000C94F0000C94F6001D
:100010000C94F6000C94F6000C94F6000C94F60088
:100020000C94F6000C94F6000C94F6000C94F60078
:100030000C94F6000C94F6000C94F6000C94F60068
:100040000C94F6000C94F6000C94F6000C94F60058
:100050000C94F6000C94F6000C94F6000C94F60048
:100060000C94F6000C94F6000C94F6000C94F60038
:100070000C94F6000C94F6000C94F6000C94F60028
:100080000C94F6000C94F6000C94F6000C94F60018
:100090000C94F6000C94F6000C94F6000C94F60008
:1000A0000C94F6000C94F6000C94F6000C94F600F8
:1000B0000C94F6000C94F6000C94F6000C94F600E8
:1000C0000C94F6000C94F6000C94F6000C94F600D8
:1000D0000C94F6000C94F6000C94F6000C94F600C8
:1000E0000C94F6000C94F6004000400480001124AB
:1000F0001FBECFEFCDBFDFE7DEBFE8EEF0E040E0B0
:1001000019C0B791A79137912791079107FD0EC0AC
:1001100097918791EF01F92FE82F0BBF07900D9270
:10012000A217B307D9F7FE011BBE04C01D92A21788
:10013000B307E1F7ED3EF40721F70E94A3000C940A
:06014000E500F894FFCF7A
:1001460080E4809341040E94D700C0E0D0E4E0E45C
:10015600FAE08881998184A795A787EE93E00197B5
:10016600F1F700C000008091004090910140A091FD
:100176000240B09103400196A11DB11D809300403D
:1001860090930140A0930240B09303408F3F9F405D
:10019600A105B105F1F610920040109201401092AF
:0801A600024010920340D5CF86
:1001AE0088E08093E605E0E4FAE083E481838FEF54
:0C01BE009FE086A397A381E08083089552
:1001CA00EC010E94FB000E94FA00CE010E94FC0092
:0601DA00CE010E94F800B6
:0C01E0008F9381E080938A008F91189526
:0401EC000C9400006F
:0401F0000E94A100C8
:0201F40008956C
:0201F60008956A
:0201F800089568
:02000004008278
:090000000000000000C000000037
:00000001FF
