:100000000C9474000C94AD000C94AD000C94AD00F5
:100010000C94AD000C94AD000C94AD000C94AD00AC
:100020000C94AD000C94AD000C94AD000C94AD009C
:100030000C94AD000C94AD000C94AD000C94AD008C
:100040000C94AD000C94AD000C94AD000C94AD007C
:100050000C94AD000C94AD000C94AD000C94AD006C
:100060000C94AD000C94AD000C94AD000C94AD005C
:100070000C94AD000C94AD000C94AD000C94AD004C
:100080000C94AD000C94AD000C94AD000C94AD003C
:100090000C94AD000C94AD000C94AD000C94AD002C
:1000A0000C94AD000C94AD000C94AD000C94AD001C
:1000B0000C94AD000C94AD000C94AD000C94AD000C
:1000C0000C94AD000C94AD000C94AD000C94AD00FC
:1000D0000C94AD000C94AD000C94AD000C94AD00EC
:1000E0000C94AD000C94AD0011241FBECFEFCDBF1A
:1000F000DFE7DEBF0E9480000C94A200F894FFCFDF
:1001000080E480934004E0E0FAE0118285E09DE025
:1001100086A397A381E08287808380E090E0A0E4BB
:10012000B4E030E4238520FF04C0238521602387C9
:100130000196883E23E09207A8F317963C93179701
:040140000196F0CF65
:10014400EC010E94B2000E94B100CE010E94B300F3
:06015400CE010E94AF0085
:04015A000C94000001
:04015E000E947E007D
:020162000895FE
:020164000895FC
:020166000895FA
:00000001FF
