:100000000C947E000C9423030C9418030C9423038B
:100010000C9423030C9423030C9423030C942303C8
:100020000C9423030C9423030C9423030C942303B8
:100030000C9423030C9423030C9423030C942303A8
:100040000C9423030C9423030C9423030C94230398
:100050000C9423030C9423030C9423030C94230388
:100060000C9423030C9423030C9423030C94230378
:100070000C9423030C9423030C9423030C94230368
:100080000C9423030C9423030C9423030C94230358
:100090000C9423030C9423030C9423030C94230348
:1000A0000C9423030C9423030C9423030C94230338
:1000B0000C9423030C9423030C9457020C942303F5
:1000C0000C94C7010C94F7010C9427020C942303A1
:1000D0000C9423030C9423030C9423030C94230308
:1000E0000C9423030C9423034000400A00065C4058
:1000F0000A400B80400B400C0006660011241FBE16
:10010000CFEFCDBFDFE7DEBFE8EEF0E040E019C0A3
:10011000B791A79137912791079107FD0EC097914D
:100120008791EF01F92FE82F0BBF07900D92A217CF
:10013000B307D9F7FE011BBE04C01D92A217B30777
:10014000E1F7EB3FF40721F70E944D010C94FD020B
:04015000F894FFCF51
:100154000F931F93CF93DF930E94900140E054E0EC
:10016400FA01108220E234E0F901108280E494E084
:1001740060E4FC016083C0E6D4E01882A0E8B4E047
:100184001C9200EA14E0F8011082FA011482F901C9
:100194001482FC0114821C8214961C921497F80198
:1001A4001482FA01108A118A128A138A148A158A0F
:1001B400168A178AF901108A118A128A138A148AF4
:1001C400158A168A178AFC01108A118A128A138AE0
:1001D400148A158A168A68E0678B188A198A1A8A1B
:1001E4001B8A1C8A1D8A1E8A1F8A50961C9250974D
:1001F40051961C92519752961C92529753961C9268
:10020400539754961C92549755961C92559756960C
:100214001C92569757961C925797F801108A118A88
:10022400128A138A148A158A168A178AFA0113867F
:10023400168615861486F901138616861586148685
:10024400FC0113861686158614861B861E861D865B
:100254001C861B961C921B971E961C921E971D961D
:100264001C921D971C961C92F801138616861586FF
:100274001486E0EEF5E01186118210821482668302
:10028400178210861582128213821286DF91CF9113
:060294001F910F91089577
:10029A000E94D60284E690E08093660A9093670AE9
:1002AA0021E0E0E4FAE05799FECF3FEF80E792E0E1
:1002BA00315080409040E1F700C0000080910A4030
:1002CA008F5F80930A4080910B408823D1F0809100
:1002DA000840909109400A978093084090930940FA
:1002EA008091084090910940009719F410920B40B0
:1002FA0005C08436910510F020930B4084A795A77A
:10030A00D2CF80910840909109400A968093084084
:06031A0090930940E5CFBD
:10032000E0E9F4E0808188608193E83984E0F807AF
:10033000C9F7E0EBF4E0808188608193E83B84E0DA
:10034000F807C9F7E0E1F4E0808188608193E83143
:1003500084E0F807C9F7E0E3F4E0808188608193E6
:10036000E83384E0F807C9F7E0E5F4E080818860CD
:100370008193E83584E0F807C9F7E0E7F4E080818D
:0E03800088608193E83784E0F807C9F7089594
:10038E001F920F920FB60F9211240BB60F922F934E
:10039E003F934F935F936F937F938F939F93AF93FF
:1003AE00BF93EF93FF93E0910640F0910740309793
:1003BE0009F0099580E180934B0AFF91EF91BF916F
:1003CE00AF919F918F917F916F915F914F913F91DF
:1003DE002F910F900BBE0F900FBE0F901F90189580
:1003EE001F920F920FB60F9211240BB60F922F93EE
:1003FE003F934F935F936F937F938F939F93AF939F
:10040E00BF93EF93FF93E0910440F0910540309736
:10041E0009F0099580E280934B0AFF91EF91BF910D
:10042E00AF919F918F917F916F915F914F913F917E
:10043E002F910F900BBE0F900FBE0F901F9018951F
:10044E001F920F920FB60F9211240BB60F922F938D
:10045E003F934F935F936F937F938F939F93AF933E
:10046E00BF93EF93FF93E0910240F09103403097DA
:10047E0009F0099580E480934B0AFF91EF91BF91AB
:10048E00AF919F918F917F916F915F914F913F911E
:10049E002F910F900BBE0F900FBE0F901F901895BF
:1004AE001F920F920FB60F9211240BB60F922F932D
:1004BE003F934F935F936F937F938F939F93AF93DE
:1004CE00BF93EF93FF93E0910040F091014030977E
:1004DE0009F0099581E080934B0AFF91EF91BF914E
:1004EE00AF919F918F917F916F915F914F913F91BE
:1004FE002F910F900BBE0F900FBE0F901F9018955F
:10050E0040E068ED88E790E00E941E0340E068ED51
:10051E008CE790E00E941E0340E068ED81E690E0DB
:10052E000E941E0340E068ED80E690E00E941E03EC
:10053E0040E068ED83E690E00E941E034CE068ED1B
:10054E0088E690E00E941E0340E068ED82E690E0AF
:08055E000E941E0380E00895D5
:10056600E0E4FAE081E090E080A791A782A793A754
:100576008FEF97E084A795A710A211A283E4818349
:1005860012821382148215821682178216861186AB
:10059600128613868FEF9FE086A397A3178681E0C6
:0605A600808380E008954F
:1005AC000E94AA000E94F1020E9410030E940803FC
:0E05BC000E9487020E94B3020E94E502089589
:1005CA0040E068ED80E191E00E941E03E0E1F1E085
:0805DA001282138280E00895F3
:1005E20040E068ED80E890E00E941E03E0E8F0E061
:0805F2001186108680E00895D7
:1005FA00EC010E942C030E942B03CE010E942D03C2
:06060A00CE010E94250351
:1006100040E068ED80E590E00E941E0380E00895D0
:1006200040E068ED80E091E00E941E0380E00895C4
:0C0630008F9381E080938A008F911895D1
:0A063C001BBEFC0164BF408308955B
:040646000C94000010
:04064A000E94A80062
:02064E0008950D
:0206500008950B
:02065200089509
:02065400089507
:02065600089505
:02065800089503
:02065A00089501
:02065C002A036F
:02065E0029036E
:0206600028036D
:0206620027036C
:02066400640030
:010666000192
:02000004008278
:090000000000000000C000000037
:00000001FF
