:100000000C9477000C9499020C948A020C94990237
:100010000C9499020C9499020C9499020C949902F4
:100020000C9499020C9499020C9499020C949902E4
:100030000C9499020C9499020C9499020C949902D4
:100040000C9499020C9499020C9499020C949902C4
:100050000C9499020C9499020C9499020C949902B4
:100060000C9484020C947D010C9499020C949902D6
:100070000C9499020C9499020C9499020C94990294
:100080000C9499020C9499020C9499020C94990284
:100090000C9499020C9499020C9499020C94990274
:1000A0000C9499020C9499020C9499020C94990264
:1000B0000C9499020C9499020C9499020C94990254
:1000C0000C9499020C9499020C9499020C94990244
:1000D0000C9499020C9499020C9499020C94990234
:1000E0000C9499020C949902400040028000112463
:1000F0001FBECFEFCDBFDFE7DEBFE8EEF0E040E0B0
:1001000019C0B791A79137912791079107FD0EC0AC
:1001100097918791EF01F92FE82F0BBF07900D9270
:10012000A217B307D9F7FE011BBE04C01D92A21788
:10013000B307E1F7ED3EF40721F70E94F0010C94BC
:060140004F02F894FFCF0E
:100146000F931F93CF93DF930E94460140E054E044
:10015600FA01108220E234E0F901108280E494E092
:1001660061E0FC016083C0E6D4E01882A0E8B4E058
:100176001C9200EA14E0F8011082FA011482F901D7
:100186001482FC0114821C8214961C921497F801A6
:100196001482FA01108A118A128A138A148A158A1D
:1001A600168A178AF901108A118A128A138A148A02
:1001B600158A168A178AFC01108A118A128A138AEE
:1001C600148A158A168A178A188A198A64E06A8B2D
:1001D6006B8B6C8B1D8A1E8A1F8A50961C925097B9
:1001E60051961C92519752961C92529753961C9276
:1001F600539754961C92549755961C92559756961B
:100206001C92569757961C925797F801108A118A96
:10021600128A138A148A158A168A178AFA0113868D
:10022600168615861486F901138616861586148693
:10023600FC0113861686158614861B861E861D8669
:100246001C861B961C921B971E961C921E971D962B
:100256001C921D971C961C92F8011386168615860D
:100266001486E0EEF5E01186118210821482168261
:10027600178210861582128213821286DF91CF9121
:060286001F910F91089585
:10028C00E0E9F4E0808188608193E83984E0F80744
:10029C00C9F7E0EBF4E0808188608193E83B84E06F
:1002AC00F807C9F7E0E1F4E0808188608193E831D8
:1002BC0084E0F807C9F7E0E3F4E08081886081937B
:1002CC00E83384E0F807C9F7E0E5F4E08081886062
:1002DC008193E83584E0F807C9F7E0E7F4E0808122
:0E02EC0088608193E83784E0F807C9F7089529
:1002FA001F920F920FB60F9211240BB60F922F93E3
:10030A003F934F935F936F937F938F939F93AF9393
:10031A00BF93EF93FF93E0910040F0910140309733
:10032A0009F0099582E080930D06FF91EF91BF9144
:10033A00AF919F918F917F916F915F914F913F9173
:10034A002F910F900BBE0F900FBE0F901F90189514
:10035A0040E068ED88E790E00E94900240E068ED96
:10036A008CE790E00E94900241E068ED81E690E01F
:10037A000E94900240E068ED80E690E00E949002C0
:10038A0040E068ED83E690E00E9490024CE068ED60
:10039A0088E690E00E94900240E068ED82E690E0F4
:0803AA000E94900280E008951A
:1003B200E0E0F6E0118281E08283138214821686E5
:1003C2001386148693E0908794E091878583148A3C
:0E03D200158A128A138A81E2808380E00895E2
:1003E0000E94050264E083E00E942802D82FC92FF2
:1003F00083E00E9464028D2F0E9464028C2F0E9471
:0A04000064028CEF0E946402EDCF4D
:10040A000E94A3000E9437020E9474020E946C029A
:10041A000E94AD010E947C020E94D9010E944302FF
:06042A000E941802089573
:10043000E0E2F8E081E493E080879187158280EC28
:10044000868383E08783138614861686158608952F
:100450000E945A020E9495028823E1F3E0E0F6E050
:0E04600020893189958591609587C90108959D
:10046E0040E068ED80E890E00E949002E0E8F0E065
:08047E001186108680E008954C
:1004860040E068ED80E191E00E949002E0E1F1E059
:080496001282138280E0089538
:10049E00EC010E949E020E949D02CE010E949F02CC
:0604AE00CE010E949B023A
:1004B400E0E0F6E09081906290838087618781E03C
:0404C400828708958E
:1004C800E0E2F8E0948195FFFDCF8093220808953B
:1004D80040E068ED80E590E00E94900280E0089599
:1004E80040E068ED80E091E00E94900280E008958D
:1004F800E0EAF0E0148281E08083128280E00895CF
:0C0508008F9381E080930D068F91189571
:0C0514008F9381E080938A008F911895EE
:0A0520001BBEFC0164BF4083089578
:08052A0080910D068170089517
:040532000C94000025
:040536000E94A1007E
:02053A00089522
:02053C00089520
:02053E0008951E
:02000004008278
:090000000000000000C000000037
:00000001FF
