:100000000C9474000C9430020C9425020C94300271
:100010000C9430020C9430020C9430020C94300298
:100020000C9430020C9430020C9430020C94300288
:100030000C9430020C9430020C9430020C94300278
:100040000C9430020C9430020C9430020C94300268
:100050000C9430020C9430020C9430020C94300258
:100060000C9430020C9430020C9430020C94300248
:100070000C9430020C9430020C9430020C94300238
:100080000C9430020C9430020C9430020C94300228
:100090000C9430020C9430020C9430020C94300218
:1000A0000C9430020C9430020C9430020C94300208
:1000B0000C9430020C9430020C9430020C943002F8
:1000C0000C9430020C9430020C9430020C943002E8
:1000D0000C9430020C9430020C9430020C943002D8
:1000E0000C9430020C94300211241FBECFEFCDBF10
:1000F000DFE7DEBFE8EEF0E040E019C0B791A7917E
:1001000037912791079107FD0EC097918791EF01D5
:10011000F92FE82F0BBF07900D92A217B307D9F75D
:10012000FE011BBE04C01D92A217B307E1F7E83E13
:10013000F40721F70E94A1010C940202F894FFCF6A
:10014000CF93DF930E943E0140E054E0FA01108219
:1001500020E234E0F901108280E494E061E4FC01E3
:100160006083C0E6D4E01882A0E8B4E01C9260EAA4
:1001700074E0FB011082FA011482F9011482FC017F
:1001800014821C8214961C921497FB011482FA01AB
:10019000108A118A128A138A148A158A168A178A73
:1001A000F901108A118A128A138A148A158A168A0A
:1001B000178AFC01108A118A128A138A148A158AF6
:1001C000168A178A188A198A1A8A1B8A1C8A1D8A13
:1001D0001E8A1F8A50961C92509751961C925197D6
:1001E00052961C92529753961C92539754961C9277
:1001F000549755961C92559756961C92569757961B
:100200001C925797FB01108A118A128A138A148A4A
:10021000158A168A178AFA01138616861586148699
:10022000F9011386168615861486FC011386168638
:10023000158614861B861E861D861C861B961C92A0
:100240001B971E961C921E971D961C921D971C961E
:100250001C92FB011386168615861486E0EEF5E0E7
:1002600011861182108214821682178210861582DE
:0C027000128213821286DF91CF91089554
:10027C00E0E9F4E0808188608193E83984E0F80754
:10028C00C9F7E0EBF4E0808188608193E83B84E07F
:10029C00F807C9F7E0E1F4E0808188608193E831E8
:1002AC0084E0F807C9F7E0E3F4E08081886081938B
:1002BC00E83384E0F807C9F7E0E5F4E08081886072
:1002CC008193E83584E0F807C9F7E0E7F4E0808132
:0E02DC0088608193E83784E0F807C9F7089539
:1002EA0040E068ED88E790E00E942B0240E068ED6C
:1002FA008CE790E00E942B0240E068ED81E690E0F6
:10030A000E942B0240E068ED80E690E00E942B02FA
:10031A0040E068ED83E690E00E942B024CE068ED35
:10032A0088E690E00E942B0240E068ED82E690E0C9
:08033A000E942B0280E00895EF
:100342000E94DB01C0E005E414E0D0E40F2EF6E4E5
:10035200EF2EF4E0FF2EF02D01C0C2E00E940D024C
:10036200C11105C0C1E0843BC9F3C0E0F7CFC13081
:1003720019F4853B99F7F1CFC23080F3813021F433
:10038200F701D083C0E0EACF8111E8CFF801D08332
:04039200C0E0E4CF14
:10039600E0E2F8E083E896E080879187158280ECBA
:1003A600868383E0878313861486168615860895CA
:1003B6000E94A0000E94F6010E941D020E94750183
:0E03C6000E9415020E94EA010E94CB010895D8
:1003D40040E068ED80E191E00E942B02E0E1F1E071
:0803E4001282138280E00895EB
:1003EC0040E068ED80E890E00E942B02E0E8F0E04D
:0803FC001186108680E00895CF
:10040400EC010E9435020E943402CE010E943602A1
:06041400CE010E9432023D
:10041A00E0E2F8E084818823ECF7809120080895CF
:10042A0040E068ED80E590E00E942B0280E00895AC
:10043A0040E068ED80E091E00E942B0280E00895A0
:0C044A008F9381E080938A008F911895B9
:0A0456001BBEFC0164BF4083089543
:040460000C940000F8
:040464000E949E0054
:020468000895F5
:02046A000895F3
:02046C000895F1
:02000004008278
:090000000000000000C000000037
:00000001FF
