:100000000C9474000C941D020C9412020C941D02AA
:100010000C941D020C941D020C941D020C941D02E4
:100020000C941D020C941D020C941D020C941D02D4
:100030000C941D020C941D020C941D020C941D02C4
:100040000C941D020C941D020C941D020C941D02B4
:100050000C941D020C941D020C941D020C941D02A4
:100060000C941D020C941D020C941D020C941D0294
:100070000C941D020C941D020C941D020C941D0284
:100080000C941D020C941D020C941D020C941D0274
:100090000C941D020C941D020C941D020C941D0264
:1000A0000C941D020C941D020C941D020C941D0254
:1000B0000C941D020C941D020C941D020C941D0244
:1000C0000C941D020C941D020C941D020C941D0234
:1000D0000C941D020C941D020C941D020C941D0224
:1000E0000C941D020C941D0211241FBECFEFCDBF36
:1000F000DFE7DEBFE8EEF0E040E019C0B791A7917E
:1001000037912791079107FD0EC097918791EF01D5
:10011000F92FE82F0BBF07900D92A217B307D9F75D
:10012000FE011BBE04C01D92A217B307E1F7E83E13
:10013000F40721F70E94A1010C94EF01F894FFCF7E
:10014000CF93DF930E943E0140E054E0FA01108219
:1001500020E234E0F901108280E494E061E4FC01E3
:100160006083C0E6D4E01882A0E8B4E01C9260EAA4
:1001700074E0FB011082FA011482F9011482FC017F
:1001800014821C8214961C921497FB011482FA01AB
:10019000108A118A128A138A148A158A168A178A73
:1001A000F901108A118A128A138A148A158A168A0A
:1001B000178AFC01108A118A128A138A148A158AF6
:1001C000168A178A188A198A1A8A1B8A1C8A1D8A13
:1001D0001E8A1F8A50961C92509751961C925197D6
:1001E00052961C92529753961C92539754961C9277
:1001F000549755961C92559756961C92569757961B
:100200001C925797FB01108A118A128A138A148A4A
:10021000158A168A178AFA01138616861586148699
:10022000F9011386168615861486FC011386168638
:10023000158614861B861E861D861C861B961C92A0
:100240001B971E961C921E971D961C921D971C961E
:100250001C92FB011386168615861486E0EEF5E0E7
:1002600011861182108214821682178210861582DE
:0C027000128213821286DF91CF91089554
:10027C00E0E9F4E0808188608193E83984E0F80754
:10028C00C9F7E0EBF4E0808188608193E83B84E07F
:10029C00F807C9F7E0E1F4E0808188608193E831E8
:1002AC0084E0F807C9F7E0E3F4E08081886081938B
:1002BC00E83384E0F807C9F7E0E5F4E08081886072
:1002CC008193E83584E0F807C9F7E0E7F4E0808132
:0E02DC0088608193E83784E0F807C9F7089539
:1002EA0040E068ED88E790E00E94180240E068ED7F
:1002FA008CE790E00E94180240E068ED81E690E009
:10030A000E94180240E068ED80E690E00E94180220
:10031A0040E068ED83E690E00E9418024CE068ED48
:10032A0088E690E00E94180240E068ED82E690E0DC
:08033A000E94180280E0089502
:100342000E94C80105E414E0C0E40F2EF6E4EF2E8B
:10035200F4E0FF2EF02D0E940A02813019F4F70119
:0E036200C083F9CF8111F7CFF801C083F4CF2B
:10037000E0E2F8E083E896E080879187158280ECE0
:10038000868383E0878313861486168615860895F0
:100390000E94A0000E94E3010E9402020E947501D7
:0E03A0000E94FA010E94D7010E94B801089540
:1003AE0040E068ED80E191E00E941802E0E1F1E0AA
:0803BE001282138280E0089511
:1003C60040E068ED80E890E00E941802E0E8F0E086
:0803D6001186108680E00895F5
:1003DE00EC010E9422020E942102CE010E94230201
:0603EE00CE010E941F0277
:1003F40040E068ED80E590E00E94180280E00895F6
:1004040040E068ED80E091E00E94180280E00895E9
:10041400E0E2F8E084818823ECF7809120080895D5
:0C0424008F9381E080938A008F911895DF
:0A0430001BBEFC0164BF4083089569
:04043A000C9400001E
:04043E000E949E007A
:0204420008951B
:02044400089519
:02044600089517
:02000004008278
:090000000000000000C000000037
:00000001FF
