:100000000C9474000C9455020C9444020C94550208
:100010000C9455020C9455020C9455020C94550204
:100020000C9455020C9455020C9455020C945502F4
:100030000C9455020C9455020C9455020C945502E4
:100040000C9455020C9455020C9455020C945502D4
:100050000C9455020C9455020C9455020C945502C4
:100060000C9455020C9455020C9455020C945502B4
:100070000C9455020C9455020C9455020C945502A4
:100080000C9455020C9455020C9455020C94550294
:100090000C9455020C9455020C9455020C94550284
:1000A0000C9455020C9455020C9455020C94550274
:1000B0000C9455020C9455020C9455020C94550264
:1000C0000C9455020C9455020C9455020C94550254
:1000D0000C9455020C9455020C9455020C94550244
:1000E0000C9455020C94550211241FBECFEFCDBFC6
:1000F000DFE7DEBFE8EEF0E040E019C0B791A7917E
:1001000037912791079107FD0EC097918791EF01D5
:10011000F92FE82F0BBF07900D92A217B307D9F75D
:10012000FE011BBE04C01D92A217B307E1F7E83E13
:10013000F40721F70E94D1010C941A02F894FFCF22
:0F01400048656C6C6F20576F726C64210D0A005C
:10015000CF93DF930E94460140E054E0FA01108201
:1001600020E234E0F901108280E494E061E0FC01D7
:100170006083C0E6D4E01882A0E8B4E01C9260EA94
:1001800074E0FB011082FA011482F9011482FC016F
:1001900014821C8214961C921497FB011482FA019B
:1001A000108A118A128A138A148A158A168A178A63
:1001B000F901108A118A128A138A148A158A168AFA
:1001C000178AFC01108A118A128A138A148A158AE6
:1001D000168A178A188A198A1A8A1B8A1C8A1D8A03
:1001E0001E8A1F8A50961C92509751961C925197C6
:1001F00052961C92529753961C92539754961C9267
:10020000549755961C92559756961C92569757960A
:100210001C925797FB01108A118A128A138A148A3A
:10022000158A168A178AFA01138616861586148689
:10023000F9011386168615861486FC011386168628
:10024000158614861B861E861D861C861B961C9290
:100250001B971E961C921E971D961C921D971C960E
:100260001C92FB011386168615861486E0EEF5E0D7
:1002700011861182108214821682178210861582CE
:0C028000128213821286DF91CF91089544
:10028C00E0E9F4E0808188608193E83984E0F80744
:10029C00C9F7E0EBF4E0808188608193E83B84E06F
:1002AC00F807C9F7E0E1F4E0808188608193E831D8
:1002BC0084E0F807C9F7E0E3F4E08081886081937B
:1002CC00E83384E0F807C9F7E0E5F4E08081886062
:1002DC008193E83584E0F807C9F7E0E7F4E0808122
:0E02EC0088608193E83784E0F807C9F7089529
:1002FA0040E068ED88E790E00E94500240E068ED37
:10030A008CE790E00E94500240E068ED81E690E0C0
:10031A000E94500240E068ED80E690E00E945002A0
:10032A0040E068ED83E690E00E9450024CE068ED00
:10033A0088E690E00E94500240E068ED82E690E094
:08034A000E94500280E00895BA
:10035200CF92DF92EF926B01E82EFB015E2D0E949D
:100362003D026623C9F00E944A028823E1F38FEF1F
:10037200C81AD80AE80AAE2DC6010197A109FC01E4
:100382005A2F0E943D02862F0E943502F6015E2DF1
:100392000E943D026111E7CFEF90DF90CF90089568
:1003A2000E94F30160E471E080E00E94A9012FEF56
:1003B20084E39CE0215080409040E1F700C00000BF
:0203C200F1CF79
:1003C400E0E2F8E083E896E08087918780E4858323
:1003D40080EC868383E087831386148616861586CD
:0203E40008957A
:1003E6000E94A8000E940E020E942D020E94250271
:0E03F6000E947D010E9402020E94E201089511
:1004040040E068ED80E191E00E945002E0E1F1E01B
:080414001282138280E00895BA
:10041C0040E068ED80E890E00E945002E0E8F0E0F7
:08042C001186108680E008959E
:10043400EC010E945A020E945902CE010E945B0202
:06044400CE010E945702E8
:10044A0040E068ED80E590E00E94500280E0089567
:10045A0040E068ED80E091E00E94500280E008955B
:10046A00E0E2F8E0948195FFFDCF80932208089599
:0E047A0057FD03C05BBF679108956081089530
:0C0488008F9381E080938A008F9118957B
:0C0494008091240885FB882780F90895DA
:0A04A0001BBEFC0164BF40830895F9
:0404AA000C940000AE
:0404AE000E949E000A
:0204B2000895AB
:0204B4000895A9
:0204B6000895A7
:02000004008278
:090000000000000000C000000037
:00000001FF
