:100000000C9474000C94F5020C94EA020C94F50222
:100010000C94F5020C94F5020C94F5020C94F50284
:100020000C94F5020C94F5020C94F5020C94F50274
:100030000C94F5020C94F5020C94F5020C94F50264
:100040000C94F5020C94F5020C94F5020C94F50254
:100050000C94F5020C94F5020C94F5020C94F50244
:100060000C94F5020C94F5020C94F5020C94F50234
:100070000C94F5020C94F5020C94F5020C94F50224
:100080000C94F5020C94F5020C94F5020C94F50214
:100090000C94F5020C94F5020C94F5020C94F50204
:1000A0000C94F5020C94F5020C94F5020C94F502F4
:1000B0000C94F5020C94F5020C94F5020C94F502E4
:1000C0000C94F5020C94F5020C94F5020C94F502D4
:1000D0000C94F5020C94F5020C94F5020C94F502C4
:1000E0000C94F5020C94F50211241FBECFEFCDBF86
:1000F000DFE7DEBFE8EEF0E040E019C0B791A7917E
:1001000037912791079107FD0EC097918791EF01D5
:10011000F92FE82F0BBF07900D92A217B307D9F75D
:10012000FE011BBE04C01D92A217B307E1F7E83E13
:10013000F40721F70E9497010C94B802F894FFCFBE
:1001400031004F4B2C204C4544204F4E2E0D0A00C1
:1001500030004F4B2C204C4544204F46462E0D0A74
:100160000054797065204F4E2F4F464620746F2003
:10017000636F6E74726F6C20746865204C45442EFA
:030180000D0A0065
:10018400CF93DF930E94600140E054E0FA011082B3
:1001940020E234E0F901108280E494E061E4FC019F
:1001A4006083C0E6D4E01882A0E8B4E01C9260EA60
:1001B40074E0FB011082FA011482F9011482FC013B
:1001C40014821C8214961C921497FB011482FA0167
:1001D400108A118A128A138A148A158A168A178A2F
:1001E400F901108A118A128A138A148A158A168AC6
:1001F400178AFC01108A118A128A138A148A158AB2
:10020400168A178A188A198A1A8A1B8A1C8A1D8ACE
:100214001E8A1F8A50961C92509751961C92519791
:1002240052961C92529753961C92539754961C9232
:10023400549755961C92559756961C9256975796D6
:100244001C925797FB01108A118A128A138A148A06
:10025400158A168A178AFA01138616861586148655
:10026400F9011386168615861486FC0113861686F4
:10027400158614861B861E861D861C861B961C925C
:100284001B971E961C921E971D961C921D971C96DA
:100294001C92FB011386168615861486E0EEF5E0A3
:1002A400118611821082148216821782108615829A
:0C02B400128213821286DF91CF91089510
:1002C000E0E9F4E0808188608193E83984E0F80710
:1002D000C9F7E0EBF4E0808188608193E83B84E03B
:1002E000F807C9F7E0E1F4E0808188608193E831A4
:1002F00084E0F807C9F7E0E3F4E080818860819347
:10030000E83384E0F807C9F7E0E5F4E0808188602D
:100310008193E83584E0F807C9F7E0E7F4E08081ED
:0E03200088608193E83784E0F807C9F70895F4
:10032E00CF93DF93CDB7DEB72897CDBFDEBF0E9448
:10033E00910261E671E080E00E94C601CE01019655
:10034E007C01D82E0F2D10E00E94D3028A3061F06E
:10035E008D30D1F391E0910FF701E10FF11D808304
:10036E00993058F010E0F0CFF701E10FF11D108237
:0E037E008D2D902F0E94F401E6CF192FE5CFB0
:10038C00CF92DF92EF92FF920F931F93CF93DF9355
:10039C00F62E072F182FC62ED72EE82EC0E0D0E051
:1003AC000CC0F6015E2D0E94E302862F0E94DB0238
:1003BC0021968FEFC81AD80AE80A6F2D702F812F5B
:1003CC000E946F02C817D90760F3DF91CF911F917C
:0C03DC000F91FF90EF90DF90CF900895FC
:1003E800CF92DF92EF926C0120E8E22E20E431E018
:1003F80040E08E2DB6010E944D02892B49F480E41D
:100408008093460462E471E080E00E94C60111C056
:1004180020E531E040E08E2DB6010E944D02892B87
:1004280041F480E48093450462E571E080E00E9435
:0A043800C601EF90DF90CF90089509
:1004420040E068ED88E790E00E94F00240E068ED4D
:100452008CE790E00E94F00240E068ED81E690E0D7
:100462000E94F00240E068ED80E690E00E94F00217
:1004720040E068ED83E690E00E94F0024CE068ED17
:1004820088E690E00E94F00240E068ED82E690E0AB
:080492000E94F00280E00895D1
:10049A00CF92DF92EF926B01E82EF6015E2D0E9459
:1004AA00E302862FF901542F0E94E30286130BC040
:1004BA00882341F08FEFC81AD80AE80A2F5F3F4F06
:1004CA004F4FEBCF682F90E0861B9109EF90DF909A
:0404DA00CF90089522
:1004DE009B01482FA82FCB01FC015A2F0E94E3024B
:1004EE00662319F00196A11DF7CF642FA901841B75
:0404FE00950B0895BD
:10050200E0E2F8E083E896E080879187158280EC4C
:10051200868383E08783138614861686158608955C
:100522000E94C2000E94AC020E94CB020E942102E1
:0E0532000E94C3020E94A0020E94810208954E
:1005400040E068ED80E191E00E94F002E0E1F1E03E
:080550001282138280E008957D
:1005580040E068ED80E890E00E94F002E0E8F0E01A
:080568001186108680E0089561
:10057000EC010E94FA020E94F902CE010E94FB02E5
:06058000CE010E94F7020B
:1005860040E068ED80E590E00E94F00280E008958A
:1005960040E068ED80E091E00E94F00280E008957E
:1005A600E0E2F8E084818823ECF780912008089542
:1005B600E0E2F8E0948195FFFDCF8093220808954C
:0E05C60057FD03C05BBF6791089560810895E3
:0C05D4008F9381E080938A008F9118952E
:0A05E0001BBEFC0164BF40830895B8
:0405EA000C9400006D
:0405EE000E949E00C9
:0205F20008956A
:0205F400089568
:0205F600089566
:02000004008278
:090000000000000000C000000037
:00000001FF
