:100000000C9478000C94F1020C94E6020C94F1022A
:100010000C94F1020C94F1020C94F1020C94F10294
:100020000C94F1020C94F1020C94F1020C94F10284
:100030000C94F1020C94F1020C94F1020C94F10274
:100040000C94F1020C94F1020C94F1020C94F10264
:100050000C94F1020C94F1020C94F1020C94F10254
:100060000C94F1020C94F1020C94F1020C94F10244
:100070000C94F1020C94F1020C94F1020C94F10234
:100080000C94F1020C94F1020C94F1020C94F10224
:100090000C94F1020C94F1020C94F1020C94F10214
:1000A0000C94F1020C94F1020C94F1020C94F10204
:1000B0000C94F1020C94F1020C940E020C94F102D7
:1000C0000C947E010C94AE010C94DE010C94F102B0
:1000D0000C94F1020C94F1020C94F1020C94F102D4
:1000E0000C94F1020C94F102400040080005F80065
:1000F00011241FBECFEFCDBFDFE7DEBFE8EEF0E09B
:1001000040E019C0B791A79137912791079107FD5A
:100110000EC097918791EF01F92FE82F0BBF079041
:100120000D92A217B307D9F7FE011BBE04C01D92A2
:10013000A217B307E1F7EF3EF40721F70E948D0203
:080140000C94CB02F894FFCFF0
:100148000F931F93CF93DF930E94470140E054E041
:10015800FA01108220E234E0F901108280E494E090
:1001680060E4FC016083C0E6D4E01882A0E8B4E053
:100178001C9200EA14E0F8011082FA011482F901D5
:100188001482FC0114821C8214961C921497F801A4
:100198001482FA01108A118A128A138A148A158A1B
:1001A800168A178AF901108A118A128A138A148A00
:1001B800158A168A178AFC01108A118A128A138AEC
:1001C800148A158A168A68E0678B188A198A1A8A27
:1001D8001B8A1C8A1D8A1E8A1F8A50961C92509759
:1001E80051961C92519752961C92529753961C9274
:1001F800539754961C92549755961C925597569619
:100208001C92569757961C925797F801108A118A94
:10021800128A138A148A158A168A178AFA0113868B
:10022800168615861486F901138616861586148691
:10023800FC0113861686158614861B861E861D8667
:100248001C861B961C921B971E961C921E971D9629
:100258001C921D971C961C92F8011386168615860B
:100268001486E0EEF5E0118611821082148266830E
:10027800178210861582128213821286DF91CF911F
:060288001F910F91089583
:10028E00E0E9F4E0808188608193E83984E0F80742
:10029E00C9F7E0EBF4E0808188608193E83B84E06D
:1002AE00F807C9F7E0E1F4E0808188608193E831D6
:1002BE0084E0F807C9F7E0E3F4E080818860819379
:1002CE00E83384E0F807C9F7E0E5F4E08081886060
:1002DE008193E83584E0F807C9F7E0E7F4E0808120
:0E02EE0088608193E83784E0F807C9F7089527
:1002FC001F920F920FB60F9211240BB60F922F93E1
:10030C003F934F935F936F937F938F939F93AF9391
:10031C00BF93EF93FF93E0910640F0910740309725
:10032C0009F0099580E180934B0AFF91EF91BF9101
:10033C00AF919F918F917F916F915F914F913F9171
:10034C002F910F900BBE0F900FBE0F901F90189512
:10035C001F920F920FB60F9211240BB60F922F9380
:10036C003F934F935F936F937F938F939F93AF9331
:10037C00BF93EF93FF93E0910440F09105403097C9
:10038C0009F0099580E280934B0AFF91EF91BF91A0
:10039C00AF919F918F917F916F915F914F913F9111
:1003AC002F910F900BBE0F900FBE0F901F901895B2
:1003BC001F920F920FB60F9211240BB60F922F9320
:1003CC003F934F935F936F937F938F939F93AF93D1
:1003DC00BF93EF93FF93E0910240F091034030976D
:1003EC0009F0099580E480934B0AFF91EF91BF913E
:1003FC00AF919F918F917F916F915F914F913F91B1
:10040C002F910F900BBE0F900FBE0F901F90189551
:10041C001F920F920FB60F9211240BB60F922F93BF
:10042C003F934F935F936F937F938F939F93AF9370
:10043C00BF93EF93FF93E0910040F0910140309710
:10044C0009F0099581E080934B0AFF91EF91BF91E0
:10045C00AF919F918F917F916F915F914F913F9150
:10046C002F910F900BBE0F900FBE0F901F901895F1
:10047C0040E068ED88E790E00E94EC0240E068ED17
:10048C008CE790E00E94EC0240E068ED81E690E0A1
:10049C000E94EC0240E068ED80E690E00E94EC02E5
:1004AC0040E068ED83E690E00E94EC024CE068EDE1
:1004BC0088E690E00E94EC0240E068ED82E690E075
:0804CC000E94EC0280E008959B
:1004D400E0E4FAE081E090E080A791A782A793A7E7
:1004E4008FEF97E084A795A710A211A283E48183DC
:1004F400128213821482158216821782168611863E
:10050400128613868FEF9FE086A397A3178681E058
:06051400808380E00895E1
:10051A000E94A40280E090E0E0E4FAE084A795A7B4
:10052A00A7EEB3E01197F1F700C00000019626A1EB
:0E053A0037A18217930791F780E090E0EFCF92
:100548000E94A4000E94BF020E94DE020E943E0296
:0E0558000E94D6020E946A020E94B302089519
:1005660040E068ED80E191E00E94EC02E0E1F1E01C
:080576001282138280E0089557
:10057E0040E068ED80E890E00E94EC02E0E8F0E0F8
:08058E001186108680E008953B
:10059600EC010E94FA020E94F902CE010E94FB02BF
:0605A600CE010E94F302E9
:1005AC0040E068ED80E590E00E94EC0280E0089568
:1005BC0040E068ED80E091E00E94EC0280E008955C
:0C05CC008F9381E080938A008F91189536
:0A05D8001BBEFC0164BF40830895C0
:0405E2000C94000075
:0405E6000E94A200CD
:0205EA00089572
:0205EC00089570
:0205EE0008956E
:0205F00008956C
:0205F20008956A
:0205F400089568
:0205F600089566
:0205F800F80207
:0205FA00F70206
:0205FC00F60205
:0205FE00F50204
:02000004008278
:090000000000000000C000000037
:00000001FF
