:100000000C9477000C9443020C9438020C94430235
:100010000C9443020C9443020C9443020C9443024C
:100020000C9443020C9443020C9443020C9443023C
:100030000C9443020C9443020C9443020C9443022C
:100040000C9443020C9443020C9443020C9443021C
:100050000C9443020C9443020C9443020C9443020C
:100060000C9443020C9443020C9443020C944302FC
:100070000C9443020C9443020C9443020C944302EC
:100080000C9443020C9443020C9443020C944302DC
:100090000C9443020C9443020C9443020C944302CC
:1000A0000C9443020C9443020C9443020C944302BC
:1000B0000C9443020C9443020C9443020C944302AC
:1000C0000C9443020C9443020C9443020C9443029C
:1000D0000C9443020C9443020C9443020C9443028C
:1000E0000C9443020C944302400040018000112410
:1000F0001FBECFEFCDBFDFE7DEBFE8EEF0E040E0B0
:1001000019C0B791A79137912791079107FD0EC0AC
:1001100097918791EF01F92FE82F0BBF07900D9270
:10012000A217B307D9F7FE011BBE04C01D92A21788
:10013000B307E1F7ED3EF40721F70E94A4010C9408
:060140001502F894FFCF48
:10014600CF93DF930E94410140E054E0FA01108210
:1001560020E234E0F901108280E494E061E4FC01DD
:100166006083C0E6D4E01882A0E8B4E01C9260EA9E
:1001760074E0FB011082FA011482F9011482FC0179
:1001860014821C8214961C921497FB011482FA01A5
:10019600108A118A128A138A148A158A168A178A6D
:1001A600F901108A118A128A138A148A158A168A04
:1001B600178AFC01108A118A128A138A148A158AF0
:1001C600168A178A188A198A1A8A1B8A1C8A1D8A0D
:1001D6001E8A1F8A50961C92509751961C925197D0
:1001E60052961C92529753961C92539754961C9271
:1001F600549755961C92559756961C925697579615
:100206001C925797FB01108A118A128A138A148A44
:10021600158A168A178AFA01138616861586148693
:10022600F9011386168615861486FC011386168632
:10023600158614861B861E861D861C861B961C929A
:100246001B971E961C921E971D961C921D971C9618
:100256001C92FB011386168615861486E0EEF5E0E1
:1002660011861182108214821682178210861582D8
:0C027600128213821286DF91CF9108954E
:10028200E0E9F4E0808188608193E83984E0F8074E
:10029200C9F7E0EBF4E0808188608193E83B84E079
:1002A200F807C9F7E0E1F4E0808188608193E831E2
:1002B20084E0F807C9F7E0E3F4E080818860819385
:1002C200E83384E0F807C9F7E0E5F4E0808188606C
:1002D2008193E83584E0F807C9F7E0E7F4E080812C
:0E02E20088608193E83784E0F807C9F7089533
:1002F00040E068ED88E790E00E943E0240E068ED53
:100300008CE790E00E943E0240E068ED81E690E0DC
:100310000E943E0240E068ED80E690E00E943E02CE
:1003200040E068ED83E690E00E943E024CE068ED1C
:1003300088E690E00E943E0240E068ED82E690E0B0
:080340000E943E0280E00895D6
:10034800CF93DF93CDB7DEB72897CDBFDEBF0E942E
:10035800E001CE0101967C01D82E0F2D10E00E94FD
:100368003002809300408A3061F08D30C1F391E013
:10037800910FF701E10FF11D8083993058F010E0DB
:10038800EECFF701E10FF11D10828D2D902F0E9405
:08039800EF01E4CF192FE3CFC0
:1003A000E0E2F8E083E896E080879187158280ECB0
:1003B000868383E0878313861486168615860895C0
:1003C0000E94A3000E94FD010E9428020E94780161
:0E03D0000E9420020E9409020E94D00108959E
:1003DE00FC018181813021F480E4809346040895EC
:0C03EE00811103C080E480934504089551
:1003FA0040E068ED80E890E00E943E02E0E8F0E02C
:08040A001186108680E00895C0
:1004120040E068ED80E191E00E943E02E0E1F1E01F
:080422001282138280E00895AC
:10042A00EC010E9448020E944702CE010E94490242
:06043A00CE010E94450204
:1004400040E068ED80E590E00E943E0280E0089583
:1004500040E068ED80E091E00E943E0280E0089577
:10046000E0E2F8E084818823ECF780912008089589
:0C0470008F9381E080938A008F91189593
:0A047C001BBEFC0164BF408308951D
:040486000C940000D2
:04048A000E94A1002B
:02048E000895CF
:020490000895CD
:020492000895CB
:02000004008278
:090000000000000000C000000037
:00000001FF
