:100000000C947E000C9437030C942C030C9437034F
:100010000C9437030C9437030C9437030C94370378
:100020000C9437030C9437030C9437030C94370368
:100030000C9437030C9437030C9437030C94370358
:100040000C9437030C9437030C9437030C94370348
:100050000C9437030C9437030C9437030C94370338
:100060000C9437030C9437030C9437030C94370328
:100070000C9437030C9437030C9437030C94370318
:100080000C9437030C9437030C9437030C94370308
:100090000C9437030C9437030C9437030C943703F8
:1000A0000C9437030C9437030C9437030C943703E8
:1000B0000C9437030C9437030C946F020C943703A1
:1000C0000C94DF010C940F020C943F020C94370344
:1000D0000C9437030C9437030C9437030C943703B8
:1000E0000C9437030C9437034000400C0006844006
:1000F0000C400D80400D400E0006900011241FBEE4
:10010000CFEFCDBFDFE7DEBFE8EEF0E040E019C0A3
:10011000B791A79137912791079107FD0EC097914D
:100120008791EF01F92FE82F0BBF07900D92A217CF
:10013000B307D9F7FE011BBE04C01D92A217B30777
:10014000E1F7EB3FF40721F70E944D010C941103F6
:04015000F894FFCF51
:100154000F931F93CF93DF930E94A80140E054E0D4
:10016400FA01108220E234E0F901108280E494E084
:1001740060E4FC016083C0E6D4E01882A0E8B4E047
:100184001C9200EA14E0F8011082FA011482F901C9
:100194001482FC0114821C8214961C921497F80198
:1001A4001482FA01108A118A128A138A148A158A0F
:1001B400168A178AF901108A118A128A138A148AF4
:1001C400158A168A178AFC01108A118A128A138AE0
:1001D400148A158A168A68E0678B188A198A1A8A1B
:1001E4001B8A1C8A1D8A1E8A1F8A50961C9250974D
:1001F40051961C92519752961C92529753961C9268
:10020400539754961C92549755961C92559756960C
:100214001C92569757961C925797F801108A118A88
:10022400128A138A148A158A168A178AFA0113867F
:10023400168615861486F901138616861586148685
:10024400FC0113861686158614861B861E861D865B
:100254001C861B961C921B971E961C921E971D961D
:100264001C921D971C961C92F801138616861586FF
:100274001486E0EEF5E01186118210821482668302
:10028400178210861582128213821286DF91CF9113
:060294001F910F91089577
:10029A000E94EA0284E690E08093660A9093670AD5
:1002AA0091E0E0E4FAE044E650E080910B4080936C
:1002BA000A40579905C010920B40813031F403C0AF
:1002CA0090930B4039C0892F05C080910C408F5FF5
:1002DA008A3018F480930C402FC010920C40809101
:1002EA000D40882379F020910840309109402A5026
:1002FA0031092093084030930940232BB9F4109216
:10030A000D4014C02091084030910940265F3F4FAC
:10031A002436310528F4209308403093094006C05A
:10032A00409308405093094090930D402091084013
:10033A003091094024A735A7AFE0B7E21197F1F74A
:06034A0000C00000B2CF6C
:10035000E0E9F4E0808188608193E83984E0F8077F
:10036000C9F7E0EBF4E0808188608193E83B84E0AA
:10037000F807C9F7E0E1F4E0808188608193E83113
:1003800084E0F807C9F7E0E3F4E0808188608193B6
:10039000E83384E0F807C9F7E0E5F4E0808188609D
:1003A0008193E83584E0F807C9F7E0E7F4E080815D
:0E03B00088608193E83784E0F807C9F7089564
:1003BE001F920F920FB60F9211240BB60F922F931E
:1003CE003F934F935F936F937F938F939F93AF93CF
:1003DE00BF93EF93FF93E0910640F0910740309763
:1003EE0009F0099580E180934B0AFF91EF91BF913F
:1003FE00AF919F918F917F916F915F914F913F91AF
:10040E002F910F900BBE0F900FBE0F901F9018954F
:10041E001F920F920FB60F9211240BB60F922F93BD
:10042E003F934F935F936F937F938F939F93AF936E
:10043E00BF93EF93FF93E0910440F0910540309706
:10044E0009F0099580E280934B0AFF91EF91BF91DD
:10045E00AF919F918F917F916F915F914F913F914E
:10046E002F910F900BBE0F900FBE0F901F901895EF
:10047E001F920F920FB60F9211240BB60F922F935D
:10048E003F934F935F936F937F938F939F93AF930E
:10049E00BF93EF93FF93E0910240F09103403097AA
:1004AE0009F0099580E480934B0AFF91EF91BF917B
:1004BE00AF919F918F917F916F915F914F913F91EE
:1004CE002F910F900BBE0F900FBE0F901F9018958F
:1004DE001F920F920FB60F9211240BB60F922F93FD
:1004EE003F934F935F936F937F938F939F93AF93AE
:1004FE00BF93EF93FF93E0910040F091014030974E
:10050E0009F0099581E080934B0AFF91EF91BF911D
:10051E00AF919F918F917F916F915F914F913F918D
:10052E002F910F900BBE0F900FBE0F901F9018952E
:10053E0040E068ED88E790E00E94320340E068ED0D
:10054E008CE790E00E94320340E068ED81E690E097
:10055E000E94320340E068ED80E690E00E94320394
:10056E0040E068ED83E690E00E9432034CE068EDD7
:10057E0088E690E00E94320340E068ED82E690E06B
:08058E000E94320380E0089591
:10059600E0E4FAE010A611A612A613A68FEF9FE0DC
:1005A60084A795A710A211A223E4218312821382A5
:1005B6001482158216821782168611861286138673
:0E05C60086A397A3178681E0808380E00895C6
:1005D4000E94AA000E9405030E9424030E941C0397
:0E05E4000E949F020E94CB020E94F90208951D
:1005F20040E068ED80E191E00E943203E0E1F1E049
:080602001282138280E00895CA
:10060A0040E068ED80E890E00E943203E0E8F0E024
:08061A001186108680E00895AE
:10062200EC010E9440030E943F03CE010E9441035D
:06063200CE010E94390315
:1006380040E068ED80E590E00E94320380E0089594
:1006480040E068ED80E091E00E94320380E0089588
:0C0658008F9381E080938A008F911895A9
:0A0664001BBEFC0164BF4083089533
:04066E000C940000E8
:040672000E94A8003A
:020676000895E5
:020678000895E3
:02067A000895E1
:02067C000895DF
:02067E000895DD
:020680000895DB
:020682000895D9
:020684003E0333
:020686003D0332
:020688003C0331
:02068A003B0330
:02068C00640008
:01068E00016A
:01068F000169
:010690000168
:02000004008278
:090000000000000000C000000037
:00000001FF
