:100000000C947A000C94F5020C94E5020C94F50221
:100010000C94F5020C94F5020C94F5020C940C026D
:100020000C94F5020C947C010C94AC010C94DC0152
:100030000C94F5020C94F5020C94F5020C94F50264
:100040000C94F5020C94F5020C94F5020C94F50254
:100050000C94F5020C94F5020C94F5020C94F50244
:100060000C94F5020C94F5020C94F5020C94F50234
:100070000C94F5020C94F5020C94F5020C94F50224
:100080000C94F5020C94F5020C94F5020C94F50214
:100090000C94F5020C94F5020C94F5020C94F50204
:1000A0000C94F5020C94F5020C94F5020C94F502F4
:1000B0000C94F5020C94F5020C94F5020C94F502E4
:1000C0000C94F5020C94F5020C94F5020C94F502D4
:1000D0000C94F5020C94F5020C94F5020C94F502C4
:1000E0000C94F5020C94F502400040080006004014
:1000F00008400A8011241FBECFEFCDBFDFE7DEBF6F
:10010000E8EEF0E040E019C0B791A7913791279150
:10011000079107FD0EC097918791EF01F92FE82F06
:100120000BBF07900D92A217B307D9F7FE011BBEB4
:1001300004C01D92A217B307E1F7E43FF40721F7CB
:0C0140000E94DE020C94C302F894FFCF72
:10014C00CF93DF930E94450140E054E087E0FA0131
:10015C00808320E234E0F901108280E494E060E4D2
:10016C00FC016083C0E6D4E01882A0E8B4E01C92E5
:10017C0060EA74E0FB011082FA011482F901148226
:10018C00FC0114821C8214961C921497FB0114829D
:10019C00FA01108A118A128A138A148A158A168A0D
:1001AC00178AF901108A118A128A138A148A158AFD
:1001BC00168A178AFC01108A118A128A138A148AE9
:1001CC00158A168A178A188A198A1A8A1B8A1C8A0F
:1001DC001D8A1E8A1F8A50961C92509751961C920B
:1001EC00519752961C92529753961C925397549631
:1001FC001C92549755961C92559756961C9256974E
:10020C0057961C925797FB01108A118A128A138AEF
:10021C00148A158A168A178AFA0113861686158689
:10022C001486F9011386168615861486FC0113862E
:10023C001686158614861B861E861D861C861B96A6
:10024C001C921B971E961C921E971D961C921D9716
:10025C001C961C92FB011386168615861486E0EEFE
:10026C00F5E0118611821082148216821782108694
:0E027C001582128213821286DF91CF910895AF
:10028A00E0E9F4E0808188608193E83984E0F80746
:10029A00C9F7E0EBF4E0808188608193E83B84E071
:1002AA00F807C9F7E0E1F4E0808188608193E831DA
:1002BA0084E0F807C9F7E0E3F4E08081886081937D
:1002CA00E83384E0F807C9F7E0E5F4E08081886064
:1002DA008193E83584E0F807C9F7E0E7F4E0808124
:0E02EA0088608193E83784E0F807C9F708952B
:1002F8001F920F920FB60F9211240BB60F922F93E5
:100308003F934F935F936F937F938F939F93AF9395
:10031800BF93EF93FF93E0910640F0910740309729
:1003280009F0099580E180930B0AFF91EF91BF9145
:10033800AF919F918F917F916F915F914F913F9175
:100348002F910F900BBE0F900FBE0F901F90189516
:100358001F920F920FB60F9211240BB60F922F9384
:100368003F934F935F936F937F938F939F93AF9335
:10037800BF93EF93FF93E0910440F09105403097CD
:1003880009F0099580E280930B0AFF91EF91BF91E4
:10039800AF919F918F917F916F915F914F913F9115
:1003A8002F910F900BBE0F900FBE0F901F901895B6
:1003B8001F920F920FB60F9211240BB60F922F9324
:1003C8003F934F935F936F937F938F939F93AF93D5
:1003D800BF93EF93FF93E0910240F0910340309771
:1003E80009F0099580E480930B0AFF91EF91BF9182
:1003F800AF919F918F917F916F915F914F913F91B5
:100408002F910F900BBE0F900FBE0F901F90189555
:100418001F920F920FB60F9211240BB60F922F93C3
:100428003F934F935F936F937F938F939F93AF9374
:10043800BF93EF93FF93E0910040F0910140309714
:1004480009F0099581E080930B0AFF91EF91BF9124
:10045800AF919F918F917F916F915F914F913F9154
:100468002F910F900BBE0F900FBE0F901F901895F5
:1004780040E068ED88E790E00E94EB0240E068ED1C
:100488008CE790E00E94EB0240E168ED81E690E0A5
:100498000E94EB0240E068ED80E690E00E94EB02EB
:1004A80040E068ED83E690E00E94EB024CE068EDE6
:1004B80088E690E00E94EB0240E068ED82E690E07A
:0804C8000E94EB0280E00895A0
:1004D000E0E0FAE081E090E080A791A782A793A7EF
:1004E00084A795A710A211A21182128213821482EE
:1004F000158216821782168611868287138680EAF5
:1005000097E086A397A317868FE0808380E0089505
:100510008091084090910940019680930840909303
:100520000940449739F480E48093470410920840CE
:060530001092094008953D
:100536000E94A6000E94B7020E94D6020E943C02B8
:0E0546000E94CE020E9468020E94AA0208953E
:1005540040E068ED80E191E00E94EB02E0E1F1E02F
:0A05640012821382789480E008955B
:10056E0040E068ED80E890E00E94EB02E0E8F0E009
:08057E001186108680E008954B
:10058600EC010E94FE020E94FD02CE010E94FF02C3
:06059600CE010E94F702F5
:10059C0040E068ED80E590E00E94EB0280E0089579
:1005AC0040E068ED80E091E00E94EB0280E008956D
:0E05BC000E949B0288E892E00E94F002FFCFAE
:0C05CA008F9381E080938A008F91189538
:0A05D6001BBEFC0164BF40830895C2
:0A05E00080930040909301400895BD
:0405EA000C9400006D
:0405EE000E94A400C3
:0205F20008956A
:0205F400089568
:0205F600089566
:0205F800089564
:0205FA00089562
:0205FC00089560
:0205FE0008955E
:02060000FC02FA
:02060200FB02F9
:02060400FA02F8
:02060600F902F7
:02000004008278
:090000000000000000C000000037
:00000001FF
