:100000000C947E000C943B030C9430030C943B0343
:100010000C943B030C943B030C943B030C943B0368
:100020000C943B030C943B030C943B030C943B0358
:100030000C943B030C943B030C943B030C943B0348
:100040000C943B030C943B030C943B030C943B0338
:100050000C943B030C943B030C943B030C943B0328
:100060000C943B030C943B030C943B030C943B0318
:100070000C943B030C943B030C943B030C943B0308
:100080000C943B030C943B030C943B030C943B03F8
:100090000C943B030C943B030C943B030C943B03E8
:1000A0000C943B030C943B030C943B030C943B03D8
:1000B0000C943B030C943B030C9471020C943B0393
:1000C0000C94E1010C9411020C9441020C943B033A
:1000D0000C943B030C943B030C943B030C943B03A8
:1000E0000C943B030C943B034000400A00068C40F8
:1000F0000A400B80400B400E0006960011241FBEE4
:10010000CFEFCDBFDFE7DEBFE8EEF0E040E019C0A3
:10011000B791A79137912791079107FD0EC097914D
:100120008791EF01F92FE82F0BBF07900D92A217CF
:10013000B307D9F7FE011BBE04C01D92A217B30777
:10014000E1F7EB3FF40721F70E944D010C941503F2
:04015000F894FFCF51
:100154000F931F93CF93DF930E94AA0140E054E0D2
:10016400FA01108220E234E0F901108280E494E084
:1001740060E4FC016083C0E6D4E01882A0E8B4E047
:100184001C9200EA14E0F8011082FA011482F901C9
:100194001482FC0114821C8214961C921497F80198
:1001A4001482FA01108A118A128A138A148A158A0F
:1001B400168A178AF901108A118A128A138A148AF4
:1001C400158A168A178AFC01108A118A128A138AE0
:1001D400148A158A168A68E0678B188A198A1A8A1B
:1001E4001B8A1C8A1D8A1E8A1F8A50961C9250974D
:1001F40051961C92519752961C92529753961C9268
:10020400539754961C92549755961C92559756960C
:100214001C92569757961C925797F801108A118A88
:10022400128A138A148A158A168A178AFA0113867F
:10023400168615861486F901138616861586148685
:10024400FC0113861686158614861B861E861D865B
:100254001C861B961C921B971E961C921E971D961D
:100264001C921D971C961C92F801138616861586FF
:100274001486E0EEF5E01186118210821482668302
:10028400178210861582128213821286DF91CF9113
:060294001F910F91089577
:10029A000E94EE0284E690E08093660A9093670AD1
:1002AA0021E0E0E4FAE044E650E080910D408093DA
:1002BA000C40579905C010920D408130D1F403C00B
:1002CA0020930D4037C010920A40809108409091C7
:1002DA0009400A968436910528F480930840909341
:1002EA0009402FC0409308405093094020930B4087
:1002FA0028C080910A408F5F8A3018F480930A40A0
:10030A0019C010920A4080910B40882369F08091AD
:10031A000840909109400A978093084090930940B9
:10032A00892B11F410920B4080910840909109405A
:10033A0084A795A78FE097E20197F1F700C0000024
:0A034A00B4CF80910A408F5FD9CF35
:10035400E0E9F4E0808188608193E83984E0F8077B
:10036400C9F7E0EBF4E0808188608193E83B84E0A6
:10037400F807C9F7E0E1F4E0808188608193E8310F
:1003840084E0F807C9F7E0E3F4E0808188608193B2
:10039400E83384E0F807C9F7E0E5F4E08081886099
:1003A4008193E83584E0F807C9F7E0E7F4E0808159
:0E03B40088608193E83784E0F807C9F7089560
:1003C2001F920F920FB60F9211240BB60F922F931A
:1003D2003F934F935F936F937F938F939F93AF93CB
:1003E200BF93EF93FF93E0910640F091074030975F
:1003F20009F0099580E180934B0AFF91EF91BF913B
:10040200AF919F918F917F916F915F914F913F91AA
:100412002F910F900BBE0F900FBE0F901F9018954B
:100422001F920F920FB60F9211240BB60F922F93B9
:100432003F934F935F936F937F938F939F93AF936A
:10044200BF93EF93FF93E0910440F0910540309702
:1004520009F0099580E280934B0AFF91EF91BF91D9
:10046200AF919F918F917F916F915F914F913F914A
:100472002F910F900BBE0F900FBE0F901F901895EB
:100482001F920F920FB60F9211240BB60F922F9359
:100492003F934F935F936F937F938F939F93AF930A
:1004A200BF93EF93FF93E0910240F09103403097A6
:1004B20009F0099580E480934B0AFF91EF91BF9177
:1004C200AF919F918F917F916F915F914F913F91EA
:1004D2002F910F900BBE0F900FBE0F901F9018958B
:1004E2001F920F920FB60F9211240BB60F922F93F9
:1004F2003F934F935F936F937F938F939F93AF93AA
:10050200BF93EF93FF93E0910040F0910140309749
:1005120009F0099581E080934B0AFF91EF91BF9119
:10052200AF919F918F917F916F915F914F913F9189
:100532002F910F900BBE0F900FBE0F901F9018952A
:1005420040E068ED88E790E00E94360340E068ED05
:100552008CE790E00E94360340E068ED81E690E08F
:100562000E94360340E068ED80E690E00E94360388
:1005720040E068ED83E690E00E9436034CE068EDCF
:1005820088E690E00E94360340E068ED82E690E063
:080592000E94360380E0089589
:10059A00E0E4FAE081E090E080A791A782A793A720
:1005AA008FEF9FE084A795A710A211A223E42183CD
:1005BA001282138214821582168217821686118677
:1005CA001286138686A397A3178681E0808380E02C
:0205DA00089582
:1005DC000E94AA000E9409030E9428030E94200383
:0E05EC000E94A1020E94CD020E94FD0208950D
:1005FA0040E068ED80E191E00E943603E0E1F1E03D
:08060A001282138280E00895C2
:1006120040E068ED80E890E00E943603E0E8F0E018
:080622001186108680E00895A6
:10062A00EC010E9444030E944303CE010E94450349
:06063A00CE010E943D0309
:1006400040E068ED80E590E00E94360380E0089588
:1006500040E068ED80E091E00E94360380E008957C
:0C0660008F9381E080938A008F911895A1
:0A066C001BBEFC0164BF408308952B
:040676000C940000E0
:04067A000E94A80032
:02067E000895DD
:020680000895DB
:020682000895D9
:020684000895D7
:020686000895D5
:020688000895D3
:02068A000895D1
:02068C00420327
:02068E00410326
:02069000400325
:020692003F0324
:02069400640000
:010696000162
:010697000161
:010698000160
:02000004008278
:090000000000000000C000000037
:00000001FF
