:100000000C9474000C949C000C949C000C949C0028
:100010000C949C000C949C000C949C000C949C00F0
:100020000C949C000C949C000C949C000C949C00E0
:100030000C949C000C949C000C949C000C949C00D0
:100040000C949C000C949C000C949C000C949C00C0
:100050000C949C000C949C000C949C000C949C00B0
:100060000C949C000C949C000C949C000C949C00A0
:100070000C949C000C949C000C949C000C949C0090
:100080000C949C000C949C000C949C000C949C0080
:100090000C949C000C949C000C949C000C949C0070
:1000A0000C949C000C949C000C949C000C949C0060
:1000B0000C949C000C949C000C949C000C949C0050
:1000C0000C949C000C949C000C949C000C949C0040
:1000D0000C949C000C949C000C949C000C949C0030
:1000E0000C949C000C949C0011241FBECFEFCDBF3C
:1000F000DFE7DEBF0E9480000C949100F894FFCFF0
:10010000E0E4F4E080E8828380E48183878988608A
:10011000878B90E48085882314F09583FBCF9683AA
:02012000F9CF15
:10012200EC010E94A1000E94A000CE010E94A20048
:06013200CE010E949E00B8
:040138000C94000023
:04013C000E947E009F
:02014000089520
:0201420008951E
:0201440008951C
:00000001FF
